:100000000C94AA000C94CB000C94CB000C94CB0065
:100010000C94CB000C94CB000C94CB000C94CB0034
:100020000C94CB000C94CB000C94CB000C94CB0024
:100030000C94CB000C94CB000C94CB000C94CB0014
:100040000C94CB000C94CB000C94CB000C94CB0004
:100050000C94CB000C94CB000C94CB000C94CB00F4
:100060000C94CB000C94D9000C9456010C94CB004A
:100070000C94CB000C9478010C94CB000C94CB0026
:100080000C94CB000C94CB000C94CB000C94CB00C4
:100090000C94CB000C94CB000C94CB000C94CB00B4
:1000A0000C94CB000C94CB000C94CB000C94CB00A4
:1000B0000C94CB000C94CB000C94CB000C94CB0094
:1000C0000C94CB000C94CB000C94CB000C94CB0084
:1000D0000C94CB000C94CB000C94CB000C94CB0074
:1000E0000C94CB001E01290132013B0144014D015A
:1000F000F6000C011501AE01B901C201CB01D4011A
:10010000DD01E601A5019C010C9429010C94E60196
:100110000C94CB010C94F6000C94EF010C94AE01FE
:100120000C949C010C94B9010C94C2010C944401F0
:100130000C94D4010C941E010C940C010C9432010B
:100140000C943B010C94DD010C944D010C94A50121
:100150000C94150111241FBECFEFD1E2DEBFCDBF3D
:1001600000E00CBF12E0A0E0B2E0E0EDF4E000E05F
:100170000BBF02C007900D92AE30B107D9F723E054
:10018000AEE0B2E001C01D92A531B207E1F70E94D6
:1001900042020C9466020C9400001092C50087E69F
:1001A0008093C40086E08093C20088E98093C100F8
:1001B00008951F920F920FB60F9211240BB60F9253
:1001C0008F939F93AF93BF93EF93FF93E091C600FC
:1001D000F8948E2F90E0FC01F097E930F10570F46F
:1001E0008827EE58FF4F8F4F0C945E028DE9809365
:1001F0007A0080917A00806480937A007894FF91ED
:10020000EF91BF91AF919F918F910F900BBE0F9087
:100210000FBE0F901F9018958EE980937A00809101
:100220007A00806480937A00E9CF8FE980937A0026
:1002300080917A00806480937A00E0CF8091C10041
:100240008F7D8093C10010927A008FE980937A00AD
:10025000D5CF88E980937A0080917A00806480937A
:100260007A00CCCF89E980937A0080917A0080640B
:1002700080937A00C3CF8AE980937A0080917A00D4
:10028000806480937A00BACF8BE980937A00809162
:100290007A00806480937A00B1CF8CE980937A00F1
:1002A00080917A00806480937A00A8CF1F920F9289
:1002B0000FB60F9211240BB60F928F93EF93FF930B
:1002C000809179008093C600E1ECF0E080818F7D21
:1002D0008083EAE7F0E0808180648083FF91EF9182
:1002E0008F910F900BBE0F900FBE0F901F9018951F
:1002F0001F920F920FB60F9211240BB60F928F938D
:10030000EF93FF93E1ECF0E0808180628083FF91C6
:10031000EF918F910F900BBE0F900FBE0F901F901B
:100320001895C0978930910578F4FC018827E55825
:10033000FF4F8F4F0C945E028FE980937A0080917B
:100340007A00806480937A0008958EE980937A0021
:1003500080917A00806480937A0008958091C10032
:100360008F7D8093C10010927A008FE980937A008C
:10037000089588E980937A0080917A008064809360
:100380007A00089589E980937A0080917A008064E8
:1003900080937A0008958AE980937A0080917A00A8
:1003A000806480937A0008958BE980937A0080912D
:1003B0007A00806480937A0008958CE980937A00B3
:1003C00080917A00806480937A0008958DE980930B
:1003D0007A0080917A00806480937A0008958A3050
:1003E00049F09091C00095FFFCCF8093C60080E05B
:1003F00090E008959091C00095FFFCCF9DE0909310
:10040000C600EFCF9093C5008093C40086E0809330
:10041000C20088E98093C10008959091C00095FFC3
:10042000FCCF8093C60008958091C00087FFFCCF69
:100430008091C60008958091C000881F8827881F7A
:100440000895FC012081222351F031969091C00043
:1004500095FFFCCF2093C60021912111F7CF08957D
:1004600080E092E090931203809311031092C500F4
:1004700087E68093C40086E08093C20088E9809379
:10048000C1000895F8941092C50087E68093C400D7
:1004900086E08093C20088E98093C10080B310BADF
:1004A00081B311BA809164008E7F809364001092B2
:1004B0007B0080E680937C007894FFCFEE0FFF1FD7
:1004C000881F8BBF0790F691E02D1994F894FFCF09
:0E04D0000000000200000000EF01000000002C
:00000001FF
